{
  "contractName": "BetGame",
  "abi": [
    {
      "constant": true,
      "inputs": [],
      "name": "getBalance",
      "outputs": [
        {
          "name": "",
          "type": "uint256"
        }
      ],
      "payable": false,
      "stateMutability": "view",
      "type": "function"
    },
    {
      "constant": true,
      "inputs": [],
      "name": "room_number",
      "outputs": [
        {
          "name": "",
          "type": "uint256"
        }
      ],
      "payable": false,
      "stateMutability": "view",
      "type": "function"
    },
    {
      "constant": true,
      "inputs": [
        {
          "name": "",
          "type": "uint256"
        }
      ],
      "name": "rooms",
      "outputs": [
        {
          "name": "gambler",
          "type": "address"
        }
      ],
      "payable": false,
      "stateMutability": "view",
      "type": "function"
    },
    {
      "constant": false,
      "inputs": [
        {
          "name": "name",
          "type": "string"
        },
        {
          "name": "guesses",
          "type": "uint256[]"
        }
      ],
      "name": "bid",
      "outputs": [],
      "payable": false,
      "stateMutability": "nonpayable",
      "type": "function"
    },
    {
      "constant": false,
      "inputs": [
        {
          "name": "room_no",
          "type": "uint256"
        }
      ],
      "name": "withdraw",
      "outputs": [],
      "payable": false,
      "stateMutability": "nonpayable",
      "type": "function"
    },
    {
      "constant": true,
      "inputs": [],
      "name": "rand",
      "outputs": [
        {
          "name": "num",
          "type": "uint8"
        }
      ],
      "payable": false,
      "stateMutability": "view",
      "type": "function"
    },
    {
      "constant": false,
      "inputs": [
        {
          "name": "name",
          "type": "string"
        }
      ],
      "name": "gamble",
      "outputs": [],
      "payable": false,
      "stateMutability": "nonpayable",
      "type": "function"
    },
    {
      "constant": true,
      "inputs": [
        {
          "name": "",
          "type": "address"
        }
      ],
      "name": "gamblers",
      "outputs": [
        {
          "name": "gamblerName",
          "type": "string"
        },
        {
          "name": "guessedNumber",
          "type": "uint8"
        }
      ],
      "payable": false,
      "stateMutability": "view",
      "type": "function"
    },
    {
      "constant": true,
      "inputs": [],
      "name": "bidder_count",
      "outputs": [
        {
          "name": "",
          "type": "uint256"
        }
      ],
      "payable": false,
      "stateMutability": "view",
      "type": "function"
    },
    {
      "constant": true,
      "inputs": [],
      "name": "gambler_count",
      "outputs": [
        {
          "name": "",
          "type": "uint256"
        }
      ],
      "payable": false,
      "stateMutability": "view",
      "type": "function"
    },
    {
      "constant": false,
      "inputs": [],
      "name": "buyTokens",
      "outputs": [],
      "payable": true,
      "stateMutability": "payable",
      "type": "function"
    },
    {
      "constant": true,
      "inputs": [
        {
          "name": "",
          "type": "address"
        }
      ],
      "name": "bidders",
      "outputs": [
        {
          "name": "bidderName",
          "type": "string"
        }
      ],
      "payable": false,
      "stateMutability": "view",
      "type": "function"
    },
    {
      "inputs": [
        {
          "name": "gbtAddress",
          "type": "address"
        }
      ],
      "payable": true,
      "stateMutability": "payable",
      "type": "constructor"
    },
    {
      "payable": true,
      "stateMutability": "payable",
      "type": "fallback"
    },
    {
      "anonymous": false,
      "inputs": [
        {
          "indexed": true,
          "name": "caller",
          "type": "address"
        },
        {
          "indexed": false,
          "name": "amount",
          "type": "uint256"
        }
      ],
      "name": "payableInvocation",
      "type": "event"
    }
  ],
  "bytecode": "0x60606040526005600155600f600255604051602080611f8c83398101604052808051906020019091905050600073ffffffffffffffffffffffffffffffffffffffff168173ffffffffffffffffffffffffffffffffffffffff161415151561006657600080fd5b33600560006101000a81548173ffffffffffffffffffffffffffffffffffffffff021916908373ffffffffffffffffffffffffffffffffffffffff16021790555080600960006101000a81548173ffffffffffffffffffffffffffffffffffffffff021916908373ffffffffffffffffffffffffffffffffffffffff16021790555050611e94806100f86000396000f3006060604052600436106100ba576000357c0100000000000000000000000000000000000000000000000000000000900463ffffffff16806312065fe01461010a57806318186310146101335780631bae0ac81461015c57806325a10af2146101bf5780632e1a7d4d1461025c5780633b3dca761461027f578063514e4194146102ae5780635c3539231461030b5780636bf5afc9146103e7578063be830af314610410578063d0febe4c14610439578063fcc8f79314610443575b3373ffffffffffffffffffffffffffffffffffffffff167f757bfee1c302dbdf02d753900359801b28408383645992a54161c8e325b0b362346040518082815260200191505060405180910390a2005b341561011557600080fd5b61011d610512565b6040518082815260200191505060405180910390f35b341561013e57600080fd5b61014661070e565b6040518082815260200191505060405180910390f35b341561016757600080fd5b61017d6004808035906020019091905050610714565b604051808273ffffffffffffffffffffffffffffffffffffffff1673ffffffffffffffffffffffffffffffffffffffff16815260200191505060405180910390f35b34156101ca57600080fd5b61025a600480803590602001908201803590602001908080601f0160208091040260200160405190810160405280939291908181526020018383808284378201915050505050509190803590602001908201803590602001908080602002602001604051908101604052809392919081815260200183836020028082843782019150505050505091905050610761565b005b341561026757600080fd5b61027d6004808035906020019091905050610907565b005b341561028a57600080fd5b610292610f66565b604051808260ff1660ff16815260200191505060405180910390f35b34156102b957600080fd5b610309600480803590602001908201803590602001908080601f01602080910402602001604051908101604052809392919081815260200183838082843782019150505050505091905050610fba565b005b341561031657600080fd5b610342600480803573ffffffffffffffffffffffffffffffffffffffff1690602001909190505061117e565b60405180806020018360ff1660ff1681526020018281038252848181546001816001161561010002031660029004815260200191508054600181600116156101000203166002900480156103d75780601f106103ac576101008083540402835291602001916103d7565b820191906000526020600020905b8154815290600101906020018083116103ba57829003601f168201915b5050935050505060405180910390f35b34156103f257600080fd5b6103fa6111ae565b6040518082815260200191505060405180910390f35b341561041b57600080fd5b6104236111b4565b6040518082815260200191505060405180910390f35b6104416111ba565b005b341561044e57600080fd5b61047a600480803573ffffffffffffffffffffffffffffffffffffffff169060200190919050506114b5565b60405180806020018281038252838181546001816001161561010002031660029004815260200191508054600181600116156101000203166002900480156105035780601f106104d857610100808354040283529160200191610503565b820191906000526020600020905b8154815290600101906020018083116104e657829003601f168201915b50509250505060405180910390f35b6000600960009054906101000a900473ffffffffffffffffffffffffffffffffffffffff1673ffffffffffffffffffffffffffffffffffffffff1663dd62ed3e30336000604051602001526040518363ffffffff167c0100000000000000000000000000000000000000000000000000000000028152600401808373ffffffffffffffffffffffffffffffffffffffff1673ffffffffffffffffffffffffffffffffffffffff1681526020018273ffffffffffffffffffffffffffffffffffffffff1673ffffffffffffffffffffffffffffffffffffffff16815260200192505050602060405180830381600087803b151561060d57600080fd5b6102c65a03f1151561061e57600080fd5b50505060405180519050600960009054906101000a900473ffffffffffffffffffffffffffffffffffffffff1673ffffffffffffffffffffffffffffffffffffffff166370a08231336000604051602001526040518263ffffffff167c0100000000000000000000000000000000000000000000000000000000028152600401808273ffffffffffffffffffffffffffffffffffffffff1673ffffffffffffffffffffffffffffffffffffffff168152602001915050602060405180830381600087803b15156106ed57600080fd5b6102c65a03f115156106fe57600080fd5b5050506040518051905001905090565b60085481565b60008181548110151561072357fe5b90600052602060002090600302016000915090508060000160009054906101000a900473ffffffffffffffffffffffffffffffffffffffff16905081565b610769611b3b565b6000835111801561077b5750600a8251145b151561078357fe5b60015461078e610512565b1015151561079b57600080fd5b6000600360003373ffffffffffffffffffffffffffffffffffffffff1673ffffffffffffffffffffffffffffffffffffffff16815260200190815260200160002060000180546001816001161561010002031660029004905011156107ff57600080fd5b6000600460003373ffffffffffffffffffffffffffffffffffffffff1673ffffffffffffffffffffffffffffffffffffffff16815260200190815260200160002060000180546001816001161561010002031660029004905014156108fd5782816000018190525081816020018190525080600460003373ffffffffffffffffffffffffffffffffffffffff1673ffffffffffffffffffffffffffffffffffffffff16815260200190815260200160002060008201518160000190805190602001906108cc929190611b61565b5060208201518160010190805190602001906108e9929190611be1565b509050506108f83360016114d2565b610902565b600080fd5b505050565b61090f611c2e565b60008060008481548110151561092157fe5b90600052602060002090600302016040805190810160405290816000820160009054906101000a900473ffffffffffffffffffffffffffffffffffffffff1673ffffffffffffffffffffffffffffffffffffffff1673ffffffffffffffffffffffffffffffffffffffff16815260200160018201600280602002604051908101604052809291908260028015610a02576020028201915b8160009054906101000a900473ffffffffffffffffffffffffffffffffffffffff1673ffffffffffffffffffffffffffffffffffffffff16815260200190600101908083116109b8575b5050505050815250509250600073ffffffffffffffffffffffffffffffffffffffff1683602001516000600281101515610a3857fe5b602002015173ffffffffffffffffffffffffffffffffffffffff1614158015610aa55750600073ffffffffffffffffffffffffffffffffffffffff1683602001516001600281101515610a8757fe5b602002015173ffffffffffffffffffffffffffffffffffffffff1614155b8015610ae25750600073ffffffffffffffffffffffffffffffffffffffff16836000015173ffffffffffffffffffffffffffffffffffffffff1614155b15610f5b5760036000846000015173ffffffffffffffffffffffffffffffffffffffff1673ffffffffffffffffffffffffffffffffffffffff16815260200190815260200160002060010160009054906101000a900460ff169150600090505b600a8160ff161015610e67578160ff166004600085602001516000600281101515610b6957fe5b602002015173ffffffffffffffffffffffffffffffffffffffff1673ffffffffffffffffffffffffffffffffffffffff1681526020019081526020016000206001018260ff16815481101515610bbb57fe5b9060005260206000209001541415610cd457600960009054906101000a900473ffffffffffffffffffffffffffffffffffffffff1673ffffffffffffffffffffffffffffffffffffffff1663a9059cbb84602001516000600281101515610c1e57fe5b60200201516002546000604051602001526040518363ffffffff167c0100000000000000000000000000000000000000000000000000000000028152600401808373ffffffffffffffffffffffffffffffffffffffff1673ffffffffffffffffffffffffffffffffffffffff16815260200182815260200192505050602060405180830381600087803b1515610cb357600080fd5b6102c65a03f11515610cc457600080fd5b5050506040518051905050610f60565b8160ff166004600085602001516001600281101515610cef57fe5b602002015173ffffffffffffffffffffffffffffffffffffffff1673ffffffffffffffffffffffffffffffffffffffff1681526020019081526020016000206001018260ff16815481101515610d4157fe5b9060005260206000209001541415610e5a57600960009054906101000a900473ffffffffffffffffffffffffffffffffffffffff1673ffffffffffffffffffffffffffffffffffffffff1663a9059cbb84602001516001600281101515610da457fe5b60200201516002546000604051602001526040518363ffffffff167c0100000000000000000000000000000000000000000000000000000000028152600401808373ffffffffffffffffffffffffffffffffffffffff1673ffffffffffffffffffffffffffffffffffffffff16815260200182815260200192505050602060405180830381600087803b1515610e3957600080fd5b6102c65a03f11515610e4a57600080fd5b5050506040518051905050610f60565b8080600101915050610b42565b600960009054906101000a900473ffffffffffffffffffffffffffffffffffffffff1673ffffffffffffffffffffffffffffffffffffffff1663a9059cbb84600001516002546000604051602001526040518363ffffffff167c0100000000000000000000000000000000000000000000000000000000028152600401808373ffffffffffffffffffffffffffffffffffffffff1673ffffffffffffffffffffffffffffffffffffffff16815260200182815260200192505050602060405180830381600087803b1515610f3a57600080fd5b6102c65a03f11515610f4b57600080fd5b5050506040518051905050610f60565b600080fd5b50505050565b6000806000806001925060649150600343034090508282840160ff168260405180826000191660001916815260200191505060405180910390206001900460ff16811515610fb057fe5b0603935050505090565b6000610fc4611c65565b60008351111515610fd157fe5b610fd9610f66565b9150600154610fe6610512565b10151515610ff357600080fd5b6000600460003373ffffffffffffffffffffffffffffffffffffffff1673ffffffffffffffffffffffffffffffffffffffff168152602001908152602001600020600001805460018160011615610100020316600290049050111561105757600080fd5b6000600360003373ffffffffffffffffffffffffffffffffffffffff1673ffffffffffffffffffffffffffffffffffffffff16815260200190815260200160002060000180546001816001161561010002031660029004905014156111745782816000018190525081816020019060ff16908160ff168152505080600360003373ffffffffffffffffffffffffffffffffffffffff1673ffffffffffffffffffffffffffffffffffffffff168152602001908152602001600020600082015181600001908051906020019061112d929190611b61565b5060208201518160010160006101000a81548160ff021916908360ff16021790555090505060076000815480929190600101919050555061116f3360006114d2565b611179565b600080fd5b505050565b600360205280600052604060002060009150905080600001908060010160009054906101000a900460ff16905082565b60065481565b60075481565b600080341115156111ca57600080fd5b600960009054906101000a900473ffffffffffffffffffffffffffffffffffffffff1673ffffffffffffffffffffffffffffffffffffffff1663dd62ed3e30336000604051602001526040518363ffffffff167c0100000000000000000000000000000000000000000000000000000000028152600401808373ffffffffffffffffffffffffffffffffffffffff1673ffffffffffffffffffffffffffffffffffffffff1681526020018273ffffffffffffffffffffffffffffffffffffffff1673ffffffffffffffffffffffffffffffffffffffff16815260200192505050602060405180830381600087803b15156112c357600080fd5b6102c65a03f115156112d457600080fd5b50505060405180519050600960009054906101000a900473ffffffffffffffffffffffffffffffffffffffff1673ffffffffffffffffffffffffffffffffffffffff1663a69e894e30346000604051602001526040518363ffffffff167c0100000000000000000000000000000000000000000000000000000000028152600401808373ffffffffffffffffffffffffffffffffffffffff1673ffffffffffffffffffffffffffffffffffffffff16815260200182815260200192505050602060405180830381600087803b15156113ab57600080fd5b6102c65a03f115156113bc57600080fd5b50505060405180519050019050600960009054906101000a900473ffffffffffffffffffffffffffffffffffffffff1673ffffffffffffffffffffffffffffffffffffffff1663095ea7b333836000604051602001526040518363ffffffff167c0100000000000000000000000000000000000000000000000000000000028152600401808373ffffffffffffffffffffffffffffffffffffffff1673ffffffffffffffffffffffffffffffffffffffff16815260200182815260200192505050602060405180830381600087803b151561149657600080fd5b6102c65a03f115156114a757600080fd5b505050604051805190505050565b600460205280600052604060002060009150905080600001905081565b6114da611c2e565b6114e2611c2e565b600960009054906101000a900473ffffffffffffffffffffffffffffffffffffffff1673ffffffffffffffffffffffffffffffffffffffff1663095ea7b385600154600960009054906101000a900473ffffffffffffffffffffffffffffffffffffffff1673ffffffffffffffffffffffffffffffffffffffff1663dd62ed3e308a6000604051602001526040518363ffffffff167c0100000000000000000000000000000000000000000000000000000000028152600401808373ffffffffffffffffffffffffffffffffffffffff1673ffffffffffffffffffffffffffffffffffffffff1681526020018273ffffffffffffffffffffffffffffffffffffffff1673ffffffffffffffffffffffffffffffffffffffff16815260200192505050602060405180830381600087803b151561161d57600080fd5b6102c65a03f1151561162e57600080fd5b50505060405180519050036000604051602001526040518363ffffffff167c0100000000000000000000000000000000000000000000000000000000028152600401808373ffffffffffffffffffffffffffffffffffffffff1673ffffffffffffffffffffffffffffffffffffffff16815260200182815260200192505050602060405180830381600087803b15156116c657600080fd5b6102c65a03f115156116d757600080fd5b505050604051805190505082156119f75760026006548115156116f657fe5b04600881905550600754600854101515611873576000600260065481151561171a57fe5b0614156117fd57838260200151600060028110151561173557fe5b602002019073ffffffffffffffffffffffffffffffffffffffff16908173ffffffffffffffffffffffffffffffffffffffff1681525050600080548060010182816117809190611c88565b9160005260206000209060030201600084909190915060008201518160000160006101000a81548173ffffffffffffffffffffffffffffffffffffffff021916908373ffffffffffffffffffffffffffffffffffffffff1602179055506020820151816001019060026117f4929190611cba565b5050505061186e565b83600060085481548110151561180f57fe5b9060005260206000209060030201600101600160028110151561182e57fe5b0160006101000a81548173ffffffffffffffffffffffffffffffffffffffff021916908373ffffffffffffffffffffffffffffffffffffffff1602179055505b6119e0565b600073ffffffffffffffffffffffffffffffffffffffff16600060085481548110151561189c57fe5b906000526020600020906003020160010160006002811015156118bb57fe5b0160009054906101000a900473ffffffffffffffffffffffffffffffffffffffff1673ffffffffffffffffffffffffffffffffffffffff16141561196e5783600060085481548110151561190b57fe5b9060005260206000209060030201600101600060028110151561192a57fe5b0160006101000a81548173ffffffffffffffffffffffffffffffffffffffff021916908373ffffffffffffffffffffffffffffffffffffffff1602179055506119df565b83600060085481548110151561198057fe5b9060005260206000209060030201600101600160028110151561199f57fe5b0160006101000a81548173ffffffffffffffffffffffffffffffffffffffff021916908373ffffffffffffffffffffffffffffffffffffffff1602179055505b5b600660008154809291906001019190505550611b35565b6000805490506007541115611acf5783816000019073ffffffffffffffffffffffffffffffffffffffff16908173ffffffffffffffffffffffffffffffffffffffff168152505060008054806001018281611a529190611c88565b9160005260206000209060030201600083909190915060008201518160000160006101000a81548173ffffffffffffffffffffffffffffffffffffffff021916908373ffffffffffffffffffffffffffffffffffffffff160217905550602082015181600101906002611ac6929190611cba565b50505050611b34565b836000600160075403815481101515611ae457fe5b906000526020600020906003020160000160006101000a81548173ffffffffffffffffffffffffffffffffffffffff021916908373ffffffffffffffffffffffffffffffffffffffff1602179055505b5b50505050565b6040805190810160405280611b4e611d37565b8152602001611b5b611d4b565b81525090565b828054600181600116156101000203166002900490600052602060002090601f016020900481019282601f10611ba257805160ff1916838001178555611bd0565b82800160010185558215611bd0579182015b82811115611bcf578251825591602001919060010190611bb4565b5b509050611bdd9190611d5f565b5090565b828054828255906000526020600020908101928215611c1d579160200282015b82811115611c1c578251825591602001919060010190611c01565b5b509050611c2a9190611d5f565b5090565b606060405190810160405280600073ffffffffffffffffffffffffffffffffffffffff168152602001611c5f611d84565b81525090565b6040805190810160405280611c78611d37565b8152602001600060ff1681525090565b815481835581811511611cb557600302816003028360005260206000209182019101611cb49190611dc1565b5b505050565b8260028101928215611d26579160200282015b82811115611d255782518260006101000a81548173ffffffffffffffffffffffffffffffffffffffff021916908373ffffffffffffffffffffffffffffffffffffffff16021790555091602001919060010190611ccd565b5b509050611d339190611e17565b5090565b602060405190810160405280600081525090565b602060405190810160405280600081525090565b611d8191905b80821115611d7d576000816000905550600101611d65565b5090565b90565b60408051908101604052806002905b600073ffffffffffffffffffffffffffffffffffffffff16815260200190600190039081611d935790505090565b611e1491905b80821115611e1057600080820160006101000a81549073ffffffffffffffffffffffffffffffffffffffff0219169055600182016000611e079190611e5a565b50600301611dc7565b5090565b90565b611e5791905b80821115611e5357600081816101000a81549073ffffffffffffffffffffffffffffffffffffffff021916905550600101611e1d565b5090565b90565b5060008155600101600090555600a165627a7a72305820d74f25ba32ca4eda92c0cda8601e6ae9da72035125020237243dd176fb50b3e00029",
  "source": "pragma solidity ^0.4.4;\r\n\r\ncontract GamblingToken {\r\n\r\n    event Transfer(address indexed _from, address indexed _to, uint256 _value);\r\n    event Approval(address indexed _owner, address indexed _spender, uint256 _value);\r\n    \r\n    function createTokens(address _owner, uint256 _value) public payable returns(uint256) { }\r\n    function totalSupply() view public returns (uint256 supply) { }\r\n    function transfer(address _to, uint256 _value) public returns (bool success) { }\r\n    function transferFrom(address _from, address _to, uint256 _value) public returns (bool success) { }\r\n    function balanceOf(address _owner) view public returns (uint256 balance) { }\r\n    function approve(address _spender, uint256 _value) public returns (bool success) { }\r\n    function allowance(address _owner, address _spender) view public returns (uint256 remaining) { }\r\n    \r\n}\r\n\r\ncontract BetGame {\r\n    \r\n    modifier ownerOnly{\r\n        if(owner!=msg.sender) revert();\r\n        _;\r\n    }\r\n    \r\n    struct Room {\r\n        address gambler;\r\n        address[2] bidders;\r\n    }\r\n    \r\n    struct Gambler {\r\n        string gamblerName;\r\n        uint8 guessedNumber;\r\n    }\r\n    \r\n    struct Bidder {\r\n        string bidderName;\r\n        uint[] guesses;\r\n    }\r\n    \r\n    Room[] public rooms;\r\n    uint BID_PRICE = 5;\r\n    uint WINNING_AMT = 15;\r\n    \r\n    mapping(address => Gambler) public gamblers;\r\n    mapping(address => Bidder) public bidders;\r\n    \r\n    event payableInvocation(address indexed caller,uint amount);\r\n    \r\n    address owner;\r\n    uint public bidder_count;\r\n    uint public gambler_count;\r\n    uint public room_number;\r\n    \r\n    GamblingToken gbt;\r\n    \r\n    function BetGame(address gbtAddress) public payable {\r\n        require(gbtAddress != address(0x0));\r\n        owner = msg.sender;\r\n        gbt = GamblingToken(gbtAddress);\r\n    }\r\n    \r\n    function() payable public {\r\n        payableInvocation(msg.sender,msg.value);\r\n    }\r\n    \r\n    function buyTokens() public payable {\r\n        require(msg.value > 0);\r\n        uint256 tokens = gbt.createTokens(this,msg.value) + gbt.allowance(this,msg.sender);\r\n        gbt.approve(msg.sender,tokens);\r\n    }\r\n    \r\n    function getBalance() view public returns(uint256){\r\n        return gbt.balanceOf(msg.sender)+gbt.allowance(this,msg.sender);\r\n    }\r\n    \r\n    // \"b\",[0,1,2,3,4,5,6,7,8,9]\r\n    // \"c\",[10,11,12,13,14,15,16,17,18,19]\r\n    function bid(string name,uint[] guesses) public {\r\n        assert(bytes(name).length > 0 && guesses.length == 10);\r\n        /*string memory nm=\"b\";\r\n        uint8[10] memory guesses=[0,1,2,3,4,5,6,7,8,9];*/\r\n        require(getBalance() >= BID_PRICE);\r\n        // checking if bidder is already a gambler\r\n        if(bytes(gamblers[msg.sender].gamblerName).length > 0) { revert(); }\r\n        // checking if bidder alredy exists\r\n        if(bytes(bidders[msg.sender].bidderName).length == 0) {\r\n            Bidder memory b;\r\n            b.bidderName = name;\r\n            b.guesses = guesses;\r\n            bidders[msg.sender] = b;\r\n            addInRoom(msg.sender, true);\r\n        } else { revert(); }\r\n    }\r\n    \r\n    function gamble(string name) public {\r\n        //string memory name=\"test\";\r\n        assert(bytes(name).length > 0);\r\n        uint8 num = rand();\r\n        require(getBalance() >= BID_PRICE);\r\n        // checking if gambler is already a bidder\r\n        if(bytes(bidders[msg.sender].bidderName).length > 0) { revert(); }\r\n        // checking if gambler alredy exists\r\n        if(bytes(gamblers[msg.sender].gamblerName).length == 0) {\r\n            Gambler memory g;\r\n            g.gamblerName = name;\r\n            g.guessedNumber = num;\r\n            gamblers[msg.sender] = g;\r\n            gambler_count++;\r\n            addInRoom(msg.sender, false);\r\n        } else { revert(); }\r\n    }\r\n    \r\n    function addInRoom(address user, bool isBidder) private {\r\n        \r\n        // collecting participant amount\r\n        gbt.approve(user,gbt.allowance(this,user)-BID_PRICE);\r\n        \r\n        if ( isBidder ) {\r\n            room_number = bidder_count/2;\r\n            \r\n            if(room_number>=gambler_count) {\r\n                if (bidder_count%2==0) {\r\n                    Room memory r;\r\n                    r.bidders[0] = user;\r\n                    rooms.push(r);\r\n                } else {\r\n                   rooms[room_number].bidders[1]=user;  \r\n                }\r\n            } else {\r\n                \r\n                if (rooms[room_number].bidders[0] == address(0x0)) {\r\n                   rooms[room_number].bidders[0]=user; \r\n                } else {\r\n                   rooms[room_number].bidders[1]=user;  \r\n                }\r\n                  \r\n            } \r\n            \r\n            bidder_count++;\r\n            \r\n        } else {\r\n            // create new room for gambler\r\n            if(gambler_count>rooms.length) {\r\n                Room memory r1;\r\n                r1.gambler = user;\r\n                rooms.push(r1); \r\n            } else { // insert into existing room \r\n                rooms[gambler_count-1].gambler=user;\r\n            }\r\n        }\r\n    }\r\n    \r\n    // withdraw, pay and clean room\r\n    function withdraw(uint room_no) public {\r\n        Room memory current_room = rooms[room_no];\r\n        \r\n        if( current_room.bidders[0]!=address(0) && current_room.bidders[1]!=address(0) && current_room.gambler!=address(0)) {\r\n            \r\n            uint8 guessed_value = gamblers[current_room.gambler].guessedNumber;\r\n            \r\n            // checking if winner is from bidders and pay \r\n            for(uint8 i=0;i<10;i++) {\r\n                if (bidders[current_room.bidders[0]].guesses[i] == guessed_value) {\r\n                    gbt.transfer(current_room.bidders[0],WINNING_AMT);\r\n                    return;\r\n                }\r\n                if (bidders[current_room.bidders[1]].guesses[i] == guessed_value) {\r\n                    gbt.transfer(current_room.bidders[1],WINNING_AMT);\r\n                    return;\r\n               }\r\n            }\r\n            \r\n            // else \r\n            gbt.transfer(current_room.gambler,WINNING_AMT);\r\n            return;\r\n       \r\n        } else { revert(); }\r\n    }\r\n    \r\n    function rand() public view returns(uint8 num) {\r\n        uint8 min = 1 ;\r\n        uint8 max = 100;\r\n        bytes32  seed = block.blockhash(block.number - 3);\r\n        num = (uint8(keccak256(seed)) % (min+max)) - min;\r\n    }\r\n    \r\n}",
  "sourcePath": "F:\\NIHAL\\Blockguess\\contracts\\BetGame.sol",
  "compiler": {
    "name": "solc",
    "version": "0.4.19+commit.c4cbbb05.Emscripten.clang"
  },
  "schemaVersion": "1.0.1",
  "updatedAt": "2018-02-22T12:38:13.765Z"
}